:100000000C945E000C9486000C9486000C94860080
:100010000C9486000C9486000C9486000C94860048
:100020000C9486000C9486000C9486000C94960424
:100030000C9486000C9486000C9486000C94860028
:100040000C944C040C9486000C941A040C94F40345
:100050000C9486000C9486000C9486000C94860008
:100060000C9486000C9486000000000024002700F9
:100070002A0000000000250028002B0004040404CE
:100080000404040402020202020203030303030342
:10009000010204081020408001020408102001021F
:1000A00004081020000000080002010000030407FB
:1000B0000000000000000000E004180B11241FBE27
:1000C000CFEFD8E0DEBFCDBF23E0ACECB1E001C0A4
:1000D0001D92AA3AB207E1F711E0A0E0B1E0EEE12B
:1000E000FFE102C005900D92AC3CB107D9F710E0DA
:1000F000CDE5D0E004C02197FE010E94670DCC350C
:10010000D107C9F70E9469050C94820F0C94000076
:10011000DC01ED91FC91DB0114964D915C911597FA
:100120006D917C910280F381E02D0994CF92DF9252
:10013000EF92FF920F931F93CF93DF936C017A019D
:100140008B01C0E0D0E0CE15DF0589F0D8016D91BC
:100150008D01D601ED91FC910190F081E02DC60159
:100160000995892B11F47E0102C02196ECCFC701BD
:10017000DF91CF911F910F91FF90EF90DF90CF9083
:100180000895FC01538D448D252F30E0842F90E09D
:10019000821B930B541710F0CF9608950197089582
:1001A000FC01918D828D981761F0828DDF01A80F7F
:1001B000B11D5D968C91928D9F5F9F73928F90E0A1
:1001C00008958FEF9FEF0895FC01918D828D981710
:1001D00031F0828DE80FF11D858D90E008958FEF4D
:1001E0009FEF0895FC01918D228D892F90E0805C16
:1001F0009F4F821B91098F739927089589ED92E093
:100200000E94F20021E0892B09F420E0822F08955A
:10021000FC01848DDF01A80FB11DA35ABF4F2C91A3
:10022000848D90E001968F739927848FA689B78972
:100230002C93A089B1898C9180648C93938D848D4B
:10024000981306C00288F389E02D80818F7D80831A
:100250000895EF92FF920F931F93CF93DF93EC01DA
:1002600081E0888F9B8D8C8D981305C0E889F98972
:10027000808185FD24C0F62E0B8D10E00F5F1F4F8F
:100280000F731127E02E8C8DE8120CC00FB607FCFF
:10029000FACFE889F989808185FFF5CFCE010E94E8
:1002A0000801F1CF8B8DFE01E80FF11DE35AFF4FDE
:1002B000F0820B8FEA89FB898081806207C0EE891A
:1002C000FF896083E889F98980818064808381E087
:1002D00090E0DF91CF911F910F91FF90EF900895E3
:1002E000CF93DF93EC01888D8823C9F0EA89FB89DD
:1002F000808185FD05C0A889B9898C9186FD0FC0D4
:100300000FB607FCF5CF808185FFF2CFA889B989A8
:100310008C9185FFEDCFCE010E940801E7CFDF91E0
:10032000CF91089580E090E0892B29F00E94FE0093
:1003300081110C940000089590E0FC01EC55FF4FF2
:100340003491FC01E057FF4F2491FC01E458FF4F2A
:10035000E491EE2309F43BC0332339F1333091F0BB
:1003600038F43130A9F0323001F584B58F7D12C0F8
:10037000373091F03830A1F03430B9F480918000FA
:100380008F7D03C0809180008F77809380000DC0A7
:1003900084B58F7784BD09C08091B0008F7703C08A
:1003A0008091B0008F7D8093B000F0E0EE0FFF1FD2
:1003B000EE58FF4FA591B4918FB7F894EC9161116D
:1003C00003C020952E2301C02E2B2C938FBF0895A0
:1003D000CF93DF9390E0FC01E057FF4F2491FC01A5
:1003E000E458FF4F8491882361F190E0880F991FB2
:1003F000FC01E859FF4FC591D491FC01EE58FF4F25
:10040000A591B491611109C09FB7F8948881209596
:1004100082238883EC912E230BC0623061F49FB756
:10042000F8943881822F809583238883EC912E2B3A
:100430002C939FBF06C08FB7F894E8812E2B28839A
:100440008FBFDF91CF910895CF93DF93EC0160E0F0
:100450008E810E949C0161E08E810E949C0160E07F
:100460008E810E949C018BE891E00197F1F7DF916A
:10047000CF910895CF92DF92EF92FF920F931F9347
:10048000CF93DF937C016C0187E0C80ED11CC0E0E4
:10049000D0E0062F10E0B8010C2E02C075956795CC
:1004A0000A94E2F76170F60181916F010E949C014C
:1004B0002196C430D10579F7C701DF91CF911F9103
:1004C0000F91FF90EF90DF90CF900C942402CF9289
:1004D000DF92EF92FF920F931F93CF93DF93EC0184
:1004E000F62E642F8C810E949C018D818F3F19F024
:1004F00060E00E949C018F850F2D10E084FF25C0D5
:100500006E0187E0C80ED11CE12CF12CB8010E2C35
:1005100002C0759567950A94E2F76170F6018191C2
:100520006F010E949C01FFEFEF1AFF0A88E0E816B6
:10053000F10461F7CE01DF91CF911F910F91FF90F0
:10054000EF90DF90CF900C942402B80184E0759571
:1005500067958A95E1F7CE010E943A026F2DCE0190
:10056000DF91CF911F910F91FF90EF90DF90CF908F
:100570000C943A0241E00E94670281E090E0089505
:1005800040E00C946702EF92FF920F931F93CF937A
:10059000DF93EC01623018F08F8588608F876B8B5A
:1005A0001C8A80E48D8B80E18E8B80E58F8B61E0EF
:1005B0008C810E94E8018D818F3F19F061E00E94DB
:1005C000E80161E08E810E94E8017E0187E0E80E8B
:1005D000F11C00E010E08F8584FD03C084E090E012
:1005E00002C088E090E0081719074CF461E0F701B9
:1005F00081917F010E94E8010F5F1F4FECCF8BE3D9
:100600009DE00197F1F760E08C810E949C0160E021
:100610008E810E949C018D818F3F19F060E00E94C5
:100620009C016F8564FD1DC063E0CE010E943A020B
:100630000BE416E4C8010197F1F763E0CE010E94D4
:100640003A02C8010197F1F763E0CE010E943A0235
:1006500083E592E00197F1F762E0CE010E943A0251
:1006600016C06062CE010E94C0028BE496E401973E
:10067000F1F76F856062CE010E94C00283E592E0CF
:100680000197F1F76F856062CE010E94C0026F850D
:100690006062CE010E94C00284E0888B6CE0CE01D3
:1006A0000E94C00261E0CE010E94C0028BE39FE184
:1006B0000197F1F782E0898B66E0CE01DF91CF915F
:1006C0001F910F91FF90EF900C94C002843008F0BE
:1006D00083E09091A103891710F08FEF890FE82F25
:1006E000F0E0E257FC4F648960688EE893E00C9478
:1006F000C002089580E090E008956115710579F0D9
:10070000FB0101900020E9F73197AF01461B570B21
:10071000DC01ED91FC910280F381E02D099480E0F1
:1007200090E008950E94640FCF93DF93EC018881DD
:100730009981009711F00E94020E198218821D8281
:100740001C821B821A82DF91CF910895EF92FF9253
:100750000F931F93CF93DF93EC017B018A01888174
:100760009981009729F02A813B8124173507B0F43D
:10077000B8016F5F7F4F0E949A0E009759F09983DE
:1007800088831B830A832C813D81232B39F4FC0150
:10079000108204C0CE010E94940307C01D830C8305
:1007A000B701888199810E947B0FCE01DF91CF91A3
:1007B0001F910F91FF90EF900895CF93DF93EC017D
:1007C0006115710559F0FB0101900020E9F731979F
:1007D000AF01461B570B0E94A60302C00E94940360
:1007E000CE01DF91CF9108951F920F920FB60F9215
:1007F00011242F933F934F935F936F937F938F9326
:100800009F93AF93BF93EF93FF9389ED92E00E9484
:100810000801FF91EF91BF91AF919F918F917F91CF
:100820006F915F914F913F912F910F900FBE0F905D
:100830001F9018951F920F920FB60F9211242F93AD
:100840008F939F93EF93FF93E091E902F091EA0277
:100850008081E091EF02F091F00282FD12C0908160
:100860008091F2028F5F8F732091F302821751F013
:10087000E091F202F0E0E752FD4F958F8093F20293
:1008800001C08081FF91EF919F918F912F910F90E7
:100890000FBE0F901F9018951F920F920FB60F92D8
:1008A00011242F933F938F939F93AF93BF93809186
:1008B000D3019091D401A091D501B091D60130918E
:1008C000D20123E0230F2D3720F40196A11DB11D85
:1008D00005C026E8230F0296A11DB11D2093D20169
:1008E0008093D3019093D401A093D501B093D60106
:1008F0008091CE019091CF01A091D001B091D10112
:100900000196A11DB11D8093CE019093CF01A093BC
:10091000D001B093D101BF91AF919F918F913F9141
:100920002F910F900FBE0F901F9018951F920F924E
:100930000FB60F9211242F938F939F93EF93FF93F2
:100940008091D7029091D80201969093D80280931B
:10095000D702E091CC01F091CD0180E480937C003E
:1009600080917A00806480937A0080917A0086FD7D
:10097000FCCF8091780020917900EE0FFF1FED51A0
:10098000FE4F90E0922B918380838091CC019091D7
:10099000CD0101968C33910529F09093CD01809380
:1009A000CC0104C01092CD011092CC01FF91EF91C7
:1009B0009F918F912F910F900FBE0F901F901895C0
:1009C000CF93DF931092DC021092DB0288EE93E06B
:1009D000A0E0B0E08093DD029093DE02A093DF02FE
:1009E000B093E0028AE091E09093DA028093D9021A
:1009F00085EC90E09093E6028093E50284EC90E031
:100A00009093E8028093E70280EC90E09093EA02F2
:100A10008093E90281EC90E09093EC028093EB02EA
:100A200082EC90E09093EE028093ED0286EC90E0F1
:100A30009093F0028093EF021092F2021092F30270
:100A40001092F4021092F50210929103109290030A
:100A50008CE191E090938F0380938E038CE08093E0
:100A600092038FEF809393038BE08093940385E050
:100A70008093950384E08093960383E080939703AB
:100A800082E0809398031092990310929A03109237
:100A90009B0310929C0310929D0361E08EE893E00B
:100AA0000E94C302C6E7D3E0198218821B821A8211
:100AB0001D821C8240E050E06BEC71E0CE010E9490
:100AC000A603269683E0CE38D80771F7DF91CF9141
:100AD0000895789484B5826084BD84B5816084BDB6
:100AE00085B5826085BD85B5816085BD80916E00CC
:100AF000816080936E0010928100809181008260FD
:100B00008093810080918100816080938100809139
:100B100080008160809380008091B1008460809328
:100B2000B1008091B00081608093B00080917A0024
:100B3000846080937A0080917A00826080937A004A
:100B400080917A00816080937A0080917A00806839
:100B500080937A001092C10060E08EE00E94E8016C
:100B600061E081E00E94E801E091E902F091EA028F
:100B700082E08083E091E502F091E6021082E0914C
:100B8000E702F091E8028FEC80831092F102E0918D
:100B9000ED02F091EE0286E08083E091EB02F091AD
:100BA000EC02808180618083E091EB02F091EC02A5
:100BB000808188608083E091EB02F091EC0280817B
:100BC00080688083E091EB02F091EC0280818F7D60
:100BD000808362E08EE893E00E94C302F894109252
:100BE00080001092810010928500109284008FE0A6
:100BF00090E09093890080938800809181008860C4
:100C00008093810080918100856080938100809134
:100C10006F00826080936F007894C1E0D0E0809193
:100C2000D7029091D802CC974CF48091D702909142
:100C3000D802892B09F0F9C47894F7C4F89480910C
:100C4000D3029091D40240E050E020E030E02C3319
:100C5000310579F1E3EEF1E08A01055A1D4FEE24EA
:100C6000FF24E41AF50A80E090E082179307BCF0B5
:100C7000C080D180DF01AE0DBF1D0D90BC91A02DB5
:100C8000CA9EB001CB9E700DDA9E700D1124D80162
:100C9000CD90DC9011976C0D7D1D6D937C9301962A
:100CA00032968C33910509F72F5F3F4F4E5F5F4FB0
:100CB000CECF3093D6022093D5029093D402809366
:100CC000D3021092E2011092E101D093E001C093AF
:100CD000DF010091DF011091E0010C3311050CF0F0
:100CE00007C4F801EE0FFF1FE55AFD4F8081918187
:100CF000813197420CF4F5C38091E1019091E201BA
:100D0000892B09F0EEC31092DE011092DD01B801CB
:100D1000012E000C880B990B0E942F0B2FE632E15D
:100D200043E85AE30E948E0B9B01AC0160E070E047
:100D300080E89FE30E94F00C6B017C016093D90175
:100D40007093DA018093DB019093DC01609176036C
:100D5000709177036115710549F040917A035091C4
:100D60007B0382E893E00E94A60304C082E893E03C
:100D70000E94940320E030E040E85FE3C701B60141
:100D80000E94840C6B017C012DEC3CEC42E852E4A7
:100D90000E94620D18166CF42AE939E94AE852E417
:100DA000C701B6010E94280B87FF03C064E271E00F
:100DB00067C02AE939E94AE852E4C701B6010E944E
:100DC000620D18169CF42AE037ED42E952E4C7019F
:100DD000B6010E94280B87FF09C066E271E086E732
:100DE00093E00E94DD036BE271E073C32AE037ED0C
:100DF00042E952E4C701B6010E94620D18166CF474
:100E00002CE53FE84BE952E4C701B6010E94280BEC
:100E100087FF03C06FE271E033C02CE53FE84BE988
:100E200052E4C701B6010E94620D18169CF42CEE24
:100E300031ED44EA52E4C701B6010E94280B87FF56
:100E400009C061E371E086E793E00E94DD0366E399
:100E500071E03FC32DEC3CEC44EA52E4C701B6011B
:100E60000E94620D18169CF428EB3EE94EEA52E40B
:100E7000C701B6010E94280B87FF09C06AE371E031
:100E800086E793E00E94DD0366E571E022C32AE96C
:100E900039E94EEA52E4C701B6010E94620D181604
:100EA0006CF420E030E049EB52E4C701B6010E9447
:100EB000280B87FF03C06CE371E0E2CF20E030E055
:100EC00049EB52E4C701B6010E94620D18169CF46A
:100ED00020E030E044EC52E4C701B6010E94280B48
:100EE00087FF09C06EE371E086E793E00E94DD03AF
:100EF00063E471E0EEC221EE3AEF43EC52E4C70145
:100F0000B6010E94620D18166CF426EF38EA4FEC19
:100F100052E4C701B6010E94280B87FF03C067E4B3
:100F200071E0AECF27ED33EA4FEC52E4C701B601D2
:100F30000E94620D18169CF420E030E04CED52E463
:100F4000C701B6010E94280B87FF09C069E471E060
:100F500086E793E00E94DD036EE471E0BAC221EE01
:100F60003AEF4BED52E4C701B6010E94620D18162C
:100F70006CF42BE734E149EE52E4C701B6010E945C
:100F8000280B87FF03C062E571E07ACF2CE53FE0D4
:100F900049EE52E4C701B6010E94620D18169CF496
:100FA00025E83BEE46EF52E4C701B6010E94280B4C
:100FB00087FF09C064E571E086E793E00E94DD03E6
:100FC00068E571E086C225E83BEE46EF52E4C701D2
:100FD000B6010E94620D18166CF42CE53FEC42E05D
:100FE00053E4C701B6010E94280B87FF03C06CE5DC
:100FF00071E046CF2DEC3CEC42E053E4C701B60172
:101000000E94620D18166CF42AE037E94AE053E4B6
:10101000C701B6010E94280B87FF03C064E271E09C
:101020001AC12AE037E94AE053E4C701B6010E9439
:10103000620D18169CF42BE734ED42E153E4C7012E
:10104000B6010E94280B87FF09C06EE571E086E7B4
:1010500093E00E94DD0363E671E03BC22CEE31EDCC
:1010600042E153E4C701B6010E94620D18166CF408
:101070002CE53FE84BE153E4C701B6010E94280B81
:1010800087FF03C06FE271E0E6C02CE53FE84BE16B
:1010900053E4C701B6010E94620D18169CF42CE5BA
:1010A0003FEC44E253E4C701B6010E94280B87FFDE
:1010B00009C068E671E086E793E00E94DD036DE613
:1010C00071E007C22CE53FEC44E253E4C701B601EE
:1010D0000E94620D18166CF429E23CE94EE253E4DA
:1010E000C701B6010E94280B87FF03C06AE371E0C5
:1010F000B2C02AE939E94EE253E4C701B6010E94C1
:10110000620D18166CF420E030E049E353E4C701A7
:10111000B6010E94280B87FF03C06CE371E09BC0FF
:1011200020E030E049E353E4C701B6010E94620DBC
:1011300018169CF420E030E044E453E4C701B60103
:101140000E94280B87FF09C061E771E086E793E002
:101150000E94DD0366E771E0BCC121E73DEF43E497
:1011600053E4C701B6010E94620D18166CF42AE917
:1011700039E94FE453E4C701B6010E94280B87FF09
:1011800003C067E471E067C02AE939E94FE453E43A
:10119000C701B6010E94620D18169CF420E030E0F1
:1011A0004CE553E4C701B6010E94280B87FF09C034
:1011B0006AE771E086E793E00E94DD036FE771E084
:1011C00088C121E73DEF4BE553E4C701B6010E941A
:1011D000620D18166CF42BE734E149E653E4C701BD
:1011E000B6010E94280B87FF03C062E571E033C09F
:1011F0002BE734E149E653E4C701B6010E94620DD2
:1012000018169CF424EA30EF46E753E4C701B60110
:101210000E94280B87FF09C063E871E086E793E02E
:101220000E94DD0368E871E054C124E13EEE46E728
:1012300053E4C701B6010E94620D18169CF424EA1B
:1012400030ED42E853E4C701B6010E94280B87FF46
:1012500009C06CE571E086E793E00E94DD0361E878
:1012600071E037C12CE53FEC42E853E4C701B60119
:101270000E94620D18166CF420E030E84AE853E44E
:10128000C701B6010E94280B87FF03C064E271E02A
:101290001AC12AE037E94AE853E4C701B6010E94BF
:1012A000620D18169CF42BE734ED42E953E4C701B4
:1012B000B6010E94280B87FF09C06CE871E086E741
:1012C00093E00E94DD0361E971E003C123E333EDA4
:1012D00042E953E4C701B6010E94620D18166CF48E
:1012E00024EA30E94BE953E4C701B6010E94280B18
:1012F00087FF03C06FE271E0E6C024EA30E94BE902
:1013000053E4C701B6010E94620D18169CF424EA4A
:1013100030ED44EA53E4C701B6010E94280B87FF71
:1013200009C065E971E086E793E00E94DD036AE9A0
:1013300071E0CFC02CE53FEC44EA53E4C701B601AD
:101340000E94620D18166CF421E73DE94EEA53E461
:10135000C701B6010E94280B87FF03C06AE371E052
:10136000B2C029E23CE94EEA53E4C701B6010E944B
:10137000620D18166CF428EB3EEF48EB53E4C701FE
:10138000B6010E94280B87FF03C06CE371E09BC08D
:1013900028EB3EEF48EB53E4C701B6010E94620D13
:1013A00018169CF428EB3EEF43EC53E4C701B6015A
:1013B0000E94280B87FF09C06EE971E086E793E081
:1013C0000E94DD0363EA71E084C028EB3EEF43EC4A
:1013D00053E4C701B6010E94620D18166CF426E6AC
:1013E00036EA4FEC53E4C701B6010E94280B87FF91
:1013F00003C067E471E067C026E636EA4FEC53E4C9
:10140000C701B6010E94620D18169CF420E030E07E
:101410004CED53E4C701B6010E94280B87FF09C0B9
:1014200067EA71E086E793E00E94DD036CEA71E011
:1014300050C028EB3EEF4BED53E4C701B6010E94CC
:10144000620D18166CF42BE734E149EE53E4C70142
:10145000B6010E94280B87FF03C062E571E033C02C
:101460002BE734E149EE53E4C701B6010E94620D57
:1014700018169CF424EA30EF46EF53E4C701B60196
:101480000E94280B87FF09C060EB71E086E793E0BC
:101490000E94DD0365EB71E01CC02CE53FEE46EFDA
:1014A00053E4C701B6010E94620D1816B4F420E09F
:1014B00030ED42E054E4C701B6010E94280B87FFDB
:1014C0000CC06CE571E086E793E00E94DD036EEAF4
:1014D00071E08CE793E00E94DD03D093E201C093BA
:1014E000E1010F5F1F4F1093E0010093DF01F1CB8B
:1014F0001092D8021092D70220917A0330917B0388
:1015000080918603909187032817390749F58091C8
:101510007603909177036091820370918303009723
:1015200019F061157105B9F46115710551F0232B9E
:1015300009F467C0FB01808190E091958195910944
:101540000CC0009709F45DC0232B09F45AC0DC01DC
:101550008C9190E002C00E94720F892B09F451C057
:1015600066E773E089ED92E00E9488006CE773E023
:1015700089ED92E00E94880069EB71E089ED92E0CC
:101580000E947D038091D7019091D801892B61F44D
:1015900080E00E9466036BEB71E08EE893E00E94AE
:1015A0007D0380E00E9466038091D7019091D8016D
:1015B00001969093D8018093D701029781F481E03E
:1015C0000E9466036BEB71E08EE893E00E947D035E
:1015D00081E00E9466031092D8011092D70166E75D
:1015E00073E08EE893E00E9488006CE773E08EE879
:1015F00093E00E9488006AEC71E08EE893E00E941C
:101600007D0380E090E020E030E0F901E55AFD4FF5
:101610001182108201962E5F3F4F8C339105A9F7FE
:101620009093D6028093D50200CB0E949201F7CA14
:10163000CF93DF93CEE8D3E02697888199810E94EB
:10164000020E83E0C637D807B9F7DF91CF9108952E
:101650000E946A0B08F481E00895E89409C097FBA2
:101660003EF490958095709561957F4F8F4F9F4F79
:101670009923A9F0F92F96E9BB279395F6958795BD
:1016800077956795B795F111F8CFFAF4BB0F11F480
:1016900060FF1BC06F5F7F4F8F4F9F4F16C0882327
:1016A00011F096E911C0772321F09EE8872F762F5D
:1016B00005C0662371F096E8862F70E060E02AF09E
:1016C0009A95660F771F881FDAF7880F969587958A
:1016D00097F90895990F0008550FAA0BE0E8FEEF5F
:1016E00016161706E807F907C0F012161306E407E6
:1016F000F50798F0621B730B840B950B39F40A26DF
:1017000061F0232B242B252B21F408950A2609F4BC
:10171000A140A6958FEF811D811D08950E94A10B08
:101720000C94120C0E94040C38F00E940B0C20F058
:10173000952311F00C94FB0B0C94010C11240C94C8
:10174000460C0E94230C70F3959FC1F3950F50E057
:10175000551F629FF001729FBB27F00DB11D639F63
:10176000AA27F00DB11DAA1F649F6627B00DA11D09
:10177000661F829F2227B00DA11D621F739FB00DAF
:10178000A11D621F839FA00D611D221F749F33271F
:10179000A00D611D231F849F600D211D822F762FB8
:1017A0006A2F11249F5750409AF0F1F088234AF095
:1017B000EE0FFF1FBB1F661F771F881F9150504001
:1017C000A9F79E3F510580F00C94FB0B0C94460C3E
:1017D0005F3FE4F3983ED4F3869577956795B79588
:1017E000F795E7959F5FC1F7FE2B880F911D9695A2
:1017F000879597F9089597F99F6780E870E060E012
:1018000008959FEF80EC089500240A941616170699
:1018100018060906089500240A94121613061406E1
:1018200005060895092E0394000C11F4882352F044
:10183000BB0F40F4BF2B11F460FF04C06F5F7F4FFC
:101840008F4F9F4F089557FD9058440F551F59F0E3
:101850005F3F71F04795880F97FB991F61F09F3F9D
:1018600079F087950895121613061406551FF2CFC6
:101870004695F1DF08C0161617061806991FF1CF16
:1018800086957105610508940895E894BB2766273D
:101890007727CB0197F908952F923F924F925F924D
:1018A0006F927F928F929F92AF92BF92CF92DF9270
:1018B000EF92FF920F931F93CF93DF93CDB7DEB7D5
:1018C000CA1BDB0B0FB6F894DEBF0FBECDBF099469
:1018D0002A88398848885F846E847D848C849B84C0
:1018E000AA84B984C884DF80EE80FD800C811B81CE
:1018F000AA81B981CE0FD11D0FB6F894DEBF0FBEFD
:10190000CDBFED0108955058BB27AA270E949B0C1C
:101910000C94120C0E94040C38F00E940B0C20F066
:1019200039F49F3F19F426F40C94010C0EF4E09561
:10193000E7FB0C94FB0BE92F0E94230C58F3BA171A
:10194000620773078407950720F079F4A6F50C94D5
:10195000450C0EF4E0950B2EBA2FA02D0B01B9010A
:1019600090010C01CA01A0011124FF27591B99F015
:10197000593F50F4503E68F11A16F040A22F232F21
:10198000342F4427585FF3CF469537952795A79571
:10199000F0405395C9F77EF41F16BA0B620B730B18
:1019A000840BBAF09150A1F0FF0FBB1F661F771F89
:1019B000881FC2F70EC0BA0F621F731F841F48F43E
:1019C000879577956795B795F7959E3F08F0B0CFC7
:1019D0009395880F08F09927EE0F979587950895AE
:1019E0000E94040D0C94120C0E940B0C58F00E94E3
:1019F000040C40F029F45F3F29F00C94FB0B5111CB
:101A00000C94460C0C94010C0E94230C68F399234F
:101A1000B1F3552391F3951B550BBB27AA276217EA
:101A20007307840738F09F5F5F4F220F331F441FF7
:101A3000AA1FA9F335D00E2E3AF0E0E832D091502B
:101A40005040E695001CCAF72BD0FE2F29D0660F18
:101A5000771F881FBB1F261737074807AB07B0E85B
:101A600009F0BB0B802DBF01FF2793585F4F3AF061
:101A70009E3F510578F00C94FB0B0C94460C5F3F95
:101A8000E4F3983ED4F3869577956795B795F795E7
:101A90009F5FC9F7880F911D9695879597F90895CF
:101AA000E1E0660F771F881FBB1F6217730784076B
:101AB000BA0720F0621B730B840BBA0BEE1F88F77A
:101AC000E09508950E946A0B08F48FEF0895EE0FD9
:101AD000FF1F0590F491E02D0994CF93DF9382309E
:101AE000910510F482E090E0E091A803F091A90341
:101AF00020E030E0C0E0D0E0309711F1408151812A
:101B000048175907C0F04817590761F4828193813B
:101B1000209719F09B838A832BC09093A90380930D
:101B2000A80326C02115310519F04217530718F4F0
:101B30009A01BE01DF01EF010280F381E02DDCCFCD
:101B40002115310509F1281B390B2430310590F49A
:101B500012968D919C9113976115710521F0FB01EF
:101B60009383828304C09093A9038093A803FD010B
:101B7000329644C0FD01E20FF31F819391932250EE
:101B800031092D933C933AC02091A6033091A703CD
:101B9000232B41F420910201309103013093A703DC
:101BA0002093A603209100013091010121153105F8
:101BB00041F42DB73EB74091040150910501241B1B
:101BC000350BE091A603F091A703E217F307A0F409
:101BD0002E1B3F0B2817390778F0AC014E5F5F4F83
:101BE0002417350748F04E0F5F1F5093A70340930B
:101BF000A6038193919302C0E0E0F0E0CF01DF9172
:101C0000CF9108950F931F93CF93DF93009709F41B
:101C10008CC0FC013297138212820091A8031091AC
:101C2000A9030115110581F420813181820F931FD1
:101C30002091A6033091A7032817390779F5F0936F
:101C4000A703E093A60371C0D80140E050E0AE17AF
:101C5000BF0750F412962D913C911397AD012115B9
:101C6000310509F1D901F3CF9D01DA0133832283D4
:101C700060817181860F971F8217930769F4EC01C9
:101C800028813981260F371F2E5F3F4F31832083F4
:101C90008A819B8193838283452B29F4F093A90346
:101CA000E093A80342C01396FC93EE931297ED01C4
:101CB000499159919E01240F351FE217F30771F4E2
:101CC00080819181840F951F029611969C938E932B
:101CD0008281938113969C938E931297E0E0F0E0BB
:101CE000D80112968D919C911397009719F0F801E5
:101CF0008C01F6CF8D919C9198012E5F3F4F820F02
:101D0000931F2091A6033091A7032817390769F480
:101D1000309729F41092A9031092A80302C01382ED
:101D200012821093A7030093A603DF91CF911F9116
:101D30000F910895A0E0B0E0E0EAFEE00C94500CB2
:101D4000EC01009721F4CB010E946D0DB8C0FC019D
:101D5000E60FF71F9C0122503109E217F30708F440
:101D6000ACC0D9010D911C91119706171707B0F05F
:101D70000530110508F49FC0C8010497861797071E
:101D800008F499C002501109061B170B0193119317
:101D90006D937C93CF010E94020E8DC05B01A01A4F
:101DA000B10A4C01800E911EA091A803B091A90325
:101DB00040E050E0E12CF12C109709F44AC0A8153E
:101DC000B905D1F56D907C901197630182E0C80E42
:101DD000D11CCA14DB0480F1A3014A195B096A0112
:101DE00082E0C80ED11C1296BC9012971396AC914B
:101DF000B5E0CB16D10440F0B282A3835183408377
:101E0000D9016D937C930AC00E5F1F4FC301800FF1
:101E1000911FF90191838083EB2DFA2FE114F104D6
:101E200031F0D7011396FC93EE93129744C0F093D0
:101E3000A903E093A8033FC08D919C911197481787
:101E4000590708F4AC017D0112960D90BC91A02DAC
:101E5000B3CF8091A6039091A70388159905E1F46B
:101E600046175707C8F4809100019091010100972F
:101E700041F48DB79EB74091040150910501841B38
:101E8000950BE817F907C8F4F093A703E093A603AE
:101E9000F901718360830FC0CB010E946D0D7C013D
:101EA000009759F0A801BE010E94690FCE010E945F
:101EB000020EC70104C0CE0102C080E090E0CDB7A1
:101EC000DEB7EEE00C946C0C81E090E0F8940C949A
:101ED000820FFB01DC0102C001900D924150504085
:101EE000D8F70895FB01DC018D9101908019011054
:101EF000D9F3990B0895FB01DC0101900D920020AC
:101F0000E1F7089510E0CDE5D0E004C0FE010E94A5
:0E1F1000670D2196CE35D107C9F7F894FFCFA3
:101F1E000000AA0380000000000029019600C10005
:101F2E007001F200D000E40000000000BA0296003A
:101F3E007A03790343004323322F00446232004474
:101F4E00004423322F0045623200450046004623EE
:101F5E00322F004762320047004723322F00416282
:101F6E0032004100412332004262320042004323DC
:101F7E00332F0044623320004423332F0045623355
:101F8E00004623332F00476233004723332F00418F
:101F9E006233004123332F00426233004323342F38
:101FAE0000446234004423342F004562340046233B
:101FBE00342F00476234004723342F00416234002F
:101FCE004123342F00426234002D00202020202097
:0C1FDE0020202020202020202020200097
:00000001FF
